{
  "contractName": "Casino",
  "abi": [
    {
      "inputs": [],
      "stateMutability": "nonpayable",
      "type": "constructor"
    },
    {
      "anonymous": false,
      "inputs": [
        {
          "indexed": true,
          "internalType": "address",
          "name": "sender",
          "type": "address"
        },
        {
          "indexed": true,
          "internalType": "uint256",
          "name": "randomNumber",
          "type": "uint256"
        },
        {
          "indexed": true,
          "internalType": "uint256",
          "name": "amount",
          "type": "uint256"
        }
      ],
      "name": "BetFinished",
      "type": "event"
    },
    {
      "anonymous": false,
      "inputs": [
        {
          "indexed": true,
          "internalType": "address",
          "name": "sender",
          "type": "address"
        },
        {
          "indexed": false,
          "internalType": "uint256",
          "name": "amount",
          "type": "uint256"
        }
      ],
      "name": "BetPlaced",
      "type": "event"
    },
    {
      "anonymous": false,
      "inputs": [
        {
          "indexed": true,
          "internalType": "address",
          "name": "sender",
          "type": "address"
        },
        {
          "indexed": false,
          "internalType": "uint256",
          "name": "amount",
          "type": "uint256"
        }
      ],
      "name": "FundsDeposited",
      "type": "event"
    },
    {
      "anonymous": false,
      "inputs": [
        {
          "indexed": true,
          "internalType": "address",
          "name": "sender",
          "type": "address"
        },
        {
          "indexed": false,
          "internalType": "uint256",
          "name": "amount",
          "type": "uint256"
        }
      ],
      "name": "FundsWithdrawan",
      "type": "event"
    },
    {
      "inputs": [
        {
          "internalType": "address",
          "name": "",
          "type": "address"
        }
      ],
      "name": "blockHashesToBeUsed",
      "outputs": [
        {
          "internalType": "uint256",
          "name": "",
          "type": "uint256"
        }
      ],
      "stateMutability": "view",
      "type": "function",
      "constant": true
    },
    {
      "inputs": [
        {
          "internalType": "address",
          "name": "",
          "type": "address"
        }
      ],
      "name": "gameWeiValues",
      "outputs": [
        {
          "internalType": "uint256",
          "name": "",
          "type": "uint256"
        }
      ],
      "stateMutability": "view",
      "type": "function",
      "constant": true
    },
    {
      "inputs": [
        {
          "internalType": "uint256",
          "name": "",
          "type": "uint256"
        }
      ],
      "name": "lastThreeWinners",
      "outputs": [
        {
          "internalType": "address",
          "name": "",
          "type": "address"
        }
      ],
      "stateMutability": "view",
      "type": "function",
      "constant": true
    },
    {
      "inputs": [],
      "name": "owner",
      "outputs": [
        {
          "internalType": "address",
          "name": "",
          "type": "address"
        }
      ],
      "stateMutability": "view",
      "type": "function",
      "constant": true
    },
    {
      "stateMutability": "payable",
      "type": "receive",
      "payable": true
    },
    {
      "inputs": [
        {
          "internalType": "uint256",
          "name": "amount",
          "type": "uint256"
        }
      ],
      "name": "withdrawFunds",
      "outputs": [],
      "stateMutability": "nonpayable",
      "type": "function"
    },
    {
      "inputs": [],
      "name": "getCasinoBalance",
      "outputs": [
        {
          "internalType": "uint256",
          "name": "",
          "type": "uint256"
        }
      ],
      "stateMutability": "view",
      "type": "function",
      "constant": true
    },
    {
      "inputs": [],
      "name": "playGame",
      "outputs": [],
      "stateMutability": "payable",
      "type": "function",
      "payable": true
    }
  ],
  "bytecode": "0x608060405234801561001057600080fd5b5033600260006101000a81548173ffffffffffffffffffffffffffffffffffffffff021916908373ffffffffffffffffffffffffffffffffffffffff1602179055506110d2806100616000396000f3fe6080604052600436106100745760003560e01c8063442d24891161004e578063442d24891461015f578063736c5b031461019c5780638da5cb5b146101d9578063af89973514610204576100c9565b806311ec0dde146100ce578063155dd5ee1461010b5780631a0843c014610134576100c9565b366100c9573373ffffffffffffffffffffffffffffffffffffffff167f543ba50a5eec5e6178218e364b1d0f396157b3c8fa278522c2cb7fd99407d474346040516100bf9190610a26565b60405180910390a2005b600080fd5b3480156100da57600080fd5b506100f560048036038101906100f09190610aa4565b61020e565b6040516101029190610a26565b60405180910390f35b34801561011757600080fd5b50610132600480360381019061012d9190610afd565b610226565b005b34801561014057600080fd5b506101496103f7565b6040516101569190610a26565b60405180910390f35b34801561016b57600080fd5b5061018660048036038101906101819190610aa4565b6103ff565b6040516101939190610a26565b60405180910390f35b3480156101a857600080fd5b506101c360048036038101906101be9190610afd565b610417565b6040516101d09190610b39565b60405180910390f35b3480156101e557600080fd5b506101ee610456565b6040516101fb9190610b39565b60405180910390f35b61020c61047c565b005b60006020528060005260406000206000915090505481565b600260009054906101000a900473ffffffffffffffffffffffffffffffffffffffff1673ffffffffffffffffffffffffffffffffffffffff163373ffffffffffffffffffffffffffffffffffffffff16146102b6576040517f08c379a00000000000000000000000000000000000000000000000000000000081526004016102ad90610bd7565b60405180910390fd5b478111156102f9576040517f08c379a00000000000000000000000000000000000000000000000000000000081526004016102f090610c69565b60405180910390fd5b60003373ffffffffffffffffffffffffffffffffffffffff168260405161031f90610cba565b60006040518083038185875af1925050503d806000811461035c576040519150601f19603f3d011682016040523d82523d6000602084013e610361565b606091505b50509050806103a5576040517f08c379a000000000000000000000000000000000000000000000000000000000815260040161039c90610d1b565b60405180910390fd5b3373ffffffffffffffffffffffffffffffffffffffff167fa6b35ed4c54edf19f7a928840900e5c881e129b8baa00b9077ca25513dfd43e2836040516103eb9190610a26565b60405180910390a25050565b600047905090565b60016020528060005260406000206000915090505481565b6003818154811061042757600080fd5b906000526020600020016000915054906101000a900473ffffffffffffffffffffffffffffffffffffffff1681565b600260009054906101000a900473ffffffffffffffffffffffffffffffffffffffff1681565b6000600160003373ffffffffffffffffffffffffffffffffffffffff1673ffffffffffffffffffffffffffffffffffffffff16815260200190815260200160002054036105a9576002436104d09190610d6a565b600160003373ffffffffffffffffffffffffffffffffffffffff1673ffffffffffffffffffffffffffffffffffffffff16815260200190815260200160002081905550346000803373ffffffffffffffffffffffffffffffffffffffff1673ffffffffffffffffffffffffffffffffffffffff168152602001908152602001600020819055503373ffffffffffffffffffffffffffffffffffffffff167f43e08d78302cdf9c94e1ffd293c2a3696139ee41cf3199b6f5eed9c7f6cc60903460405161059c9190610a26565b60405180910390a2610915565b600034146105ec576040517f08c379a00000000000000000000000000000000000000000000000000000000081526004016105e390610e32565b60405180910390fd5b6000801b600160003373ffffffffffffffffffffffffffffffffffffffff1673ffffffffffffffffffffffffffffffffffffffff168152602001908152602001600020544003610671576040517f08c379a000000000000000000000000000000000000000000000000000000000815260040161066890610ec4565b60405180910390fd5b6000600160003373ffffffffffffffffffffffffffffffffffffffff1673ffffffffffffffffffffffffffffffffffffffff168152602001908152602001600020544060001c90506000806002836106c99190610f13565b036108445760026000803373ffffffffffffffffffffffffffffffffffffffff1673ffffffffffffffffffffffffffffffffffffffff168152602001908152602001600020546107199190610f44565b905060003373ffffffffffffffffffffffffffffffffffffffff168260405161074190610cba565b60006040518083038185875af1925050503d806000811461077e576040519150601f19603f3d011682016040523d82523d6000602084013e610783565b606091505b50509050806107c7576040517f08c379a00000000000000000000000000000000000000000000000000000000081526004016107be90610fea565b60405180910390fd5b6003339080600181540180825580915050600190039060005260206000200160009091909190916101000a81548173ffffffffffffffffffffffffffffffffffffffff021916908373ffffffffffffffffffffffffffffffffffffffff160217905550600380805490501115610842576108416000610917565b5b505b6000600160003373ffffffffffffffffffffffffffffffffffffffff1673ffffffffffffffffffffffffffffffffffffffff1681526020019081526020016000208190555060008060003373ffffffffffffffffffffffffffffffffffffffff1673ffffffffffffffffffffffffffffffffffffffff1681526020019081526020016000208190555080823373ffffffffffffffffffffffffffffffffffffffff167febed8a918aebcde583e866263aa2aa8cba9132811a0e9527757df52ece5832db60405160405180910390a450505b565b6003600160038054905061092b919061100a565b8154811061093c5761093b61103e565b5b9060005260206000200160009054906101000a900473ffffffffffffffffffffffffffffffffffffffff166003828154811061097b5761097a61103e565b5b9060005260206000200160006101000a81548173ffffffffffffffffffffffffffffffffffffffff021916908373ffffffffffffffffffffffffffffffffffffffff16021790555060038054806109d5576109d461106d565b5b6001900381819060005260206000200160006101000a81549073ffffffffffffffffffffffffffffffffffffffff0219169055905550565b6000819050919050565b610a2081610a0d565b82525050565b6000602082019050610a3b6000830184610a17565b92915050565b600080fd5b600073ffffffffffffffffffffffffffffffffffffffff82169050919050565b6000610a7182610a46565b9050919050565b610a8181610a66565b8114610a8c57600080fd5b50565b600081359050610a9e81610a78565b92915050565b600060208284031215610aba57610ab9610a41565b5b6000610ac884828501610a8f565b91505092915050565b610ada81610a0d565b8114610ae557600080fd5b50565b600081359050610af781610ad1565b92915050565b600060208284031215610b1357610b12610a41565b5b6000610b2184828501610ae8565b91505092915050565b610b3381610a66565b82525050565b6000602082019050610b4e6000830184610b2a565b92915050565b600082825260208201905092915050565b7f4c6f74746572793a204f6e6c7920746865206f776e65722063616e207769746860008201527f647261772066756e647300000000000000000000000000000000000000000000602082015250565b6000610bc1602a83610b54565b9150610bcc82610b65565b604082019050919050565b60006020820190508181036000830152610bf081610bb4565b9050919050565b7f4c6f74746572793a2043616e206e6f74207769746864726177206d6f7265206660008201527f756e6473207468616e20746865726520697320696e2074686520436173696e6f602082015250565b6000610c53604083610b54565b9150610c5e82610bf7565b604082019050919050565b60006020820190508181036000830152610c8281610c46565b9050919050565b600081905092915050565b50565b6000610ca4600083610c89565b9150610caf82610c94565b600082019050919050565b6000610cc582610c97565b9150819050919050565b7f4c6f74746572793a20455448207769746864726177616c206661696c65640000600082015250565b6000610d05601e83610b54565b9150610d1082610ccf565b602082019050919050565b60006020820190508181036000830152610d3481610cf8565b9050919050565b7f4e487b7100000000000000000000000000000000000000000000000000000000600052601160045260246000fd5b6000610d7582610a0d565b9150610d8083610a0d565b9250827fffffffffffffffffffffffffffffffffffffffffffffffffffffffffffffffff03821115610db557610db4610d3b565b5b828201905092915050565b7f4c6f74746572793a2046696e6973682063757272656e742067616d652062656660008201527f6f7265207374617274696e67206e6577206f6e65000000000000000000000000602082015250565b6000610e1c603483610b54565b9150610e2782610dc0565b604082019050919050565b60006020820190508181036000830152610e4b81610e0f565b9050919050565b7f4c6f74746572793a20426c6f636b206e6f74206d696e6564207965742c206f7260008201527f2032353620626c6f636b73206861766520706173736564000000000000000000602082015250565b6000610eae603783610b54565b9150610eb982610e52565b604082019050919050565b60006020820190508181036000830152610edd81610ea1565b9050919050565b7f4e487b7100000000000000000000000000000000000000000000000000000000600052601260045260246000fd5b6000610f1e82610a0d565b9150610f2983610a0d565b925082610f3957610f38610ee4565b5b828206905092915050565b6000610f4f82610a0d565b9150610f5a83610a0d565b9250817fffffffffffffffffffffffffffffffffffffffffffffffffffffffffffffffff0483118215151615610f9357610f92610d3b565b5b828202905092915050565b7f4c6f74746572793a2057696e6e696e67207061796f7574206661696c65640000600082015250565b6000610fd4601e83610b54565b9150610fdf82610f9e565b602082019050919050565b6000602082019050818103600083015261100381610fc7565b9050919050565b600061101582610a0d565b915061102083610a0d565b92508282101561103357611032610d3b565b5b828203905092915050565b7f4e487b7100000000000000000000000000000000000000000000000000000000600052603260045260246000fd5b7f4e487b7100000000000000000000000000000000000000000000000000000000600052603160045260246000fdfea2646970667358221220b985ae8a512322c2b79fca6358ee469b4ff288151f426a70755169b0043e711d64736f6c634300080d0033",
  "immutableReferences": {},
  "source": "// SPDX-License-Identifier: MIT\npragma solidity 0.8.13;\n\n// We need to have a way to fund this contract, and people to put ether in it\n\n// Also there would have to be a way someone to retrieve the funds from this smart contract\n\n// First we will focus on the actual game function\n\ncontract Casino {\n    \n    // The amount of ether(wei) that people are playing\n    mapping(address => uint256) public gameWeiValues;\n\n    // Here we will keep track of the number of the blockhash that is supposed to be user\n    // for each game\n    mapping(address => uint256) public blockHashesToBeUsed;\n\n    address public owner;\n\n\n    address[] public lastThreeWinners;\n\n\n    event FundsDeposited(address indexed sender, uint256 amount);\n    event FundsWithdrawan(address indexed sender, uint256 amount);\n    event BetPlaced(address indexed sender, uint256 amount);\n    event BetFinished(address indexed sender, uint256 indexed randomNumber, uint256 indexed amount);\n\n    constructor() {\n        owner = msg.sender;\n    }\n\n    function withdrawFunds(uint256 amount) external {\n        require(msg.sender == owner, \"Lottery: Only the owner can withdraw funds\");\n        require(amount <= address(this).balance, \"Lottery: Can not withdraw more funds than there is in the Casino\");\n\n        (bool success,) = msg.sender.call{value: amount}(\"\");\n        require(success, \"Lottery: ETH withdrawal failed\");\n\n        emit FundsWithdrawan(msg.sender, amount);\n    }\n\n    function getCasinoBalance() external view returns (uint256) {\n        return address(this).balance;\n    }\n\n    function playGame() external payable {\n\n        // We have to figure out if the game is called for first time.\n        // If this is zero we know the player has called playGame for first time.\n        if(blockHashesToBeUsed[msg.sender] == 0) {\n\n\n            // We are not playing yet, we are just determining which blockhash to be used for the randomness.\n            // block.number + 2 should be enough so that this blockhash is not known yet, the time msg.sender is calling playGame for first time.\n            blockHashesToBeUsed[msg.sender] = block.number + 2;\n\n\n            // We are keeping the amount the player has send in the contract.\n            // This will later determine the amount that the player wins and how much he will get.\n            gameWeiValues[msg.sender] = msg.value;\n\n            emit BetPlaced(msg.sender, msg.value);\n\n            return;\n        }\n\n        // We are checking the result.\n\n        // The player should not send any ether because he already did it the first time.\n        require(msg.value == 0, \"Lottery: Finish current game before starting new one\");\n\n        require(blockhash(blockHashesToBeUsed[msg.sender]) != 0, \"Lottery: Block not mined yet, or 256 blocks have passed\");\n\n\n        // If the exectuion goes to here we now that the block is mined and we can safely calculate a random number.\n        // We have to cast the number to uint256 becuse blockchash function returns bytes array.\n        uint256 randomNumber = uint256(blockhash(blockHashesToBeUsed[msg.sender]));\n\n\n        // Determining win or loose\n\n\n        uint256 winningAmount;\n        // Checking if number is even\n        if(randomNumber % 2 == 0) {\n            winningAmount = gameWeiValues[msg.sender] * 2;\n\n            (bool success,) = msg.sender.call{value: winningAmount}(\"\");\n            require(success, \"Lottery: Winning payout failed\");\n\n            lastThreeWinners.push(msg.sender);\n\n            if(lastThreeWinners.length > 3) {\n                _removeAtIndex(0);\n            }\n        }\n\n\n        // We are reseting the state so the player can play again.\n        blockHashesToBeUsed[msg.sender] = 0;\n        gameWeiValues[msg.sender] = 0;\n\n        emit BetFinished(msg.sender, randomNumber, winningAmount);\n    }\n\n    // receive always has to be a payable function, the code inside receive is executed\n    // whenever someone sends ether to the contract address without any data\n    receive() external payable {\n        emit FundsDeposited(msg.sender, msg.value);\n    }\n\n    function _removeAtIndex(uint256 i) private {\n        lastThreeWinners[i] = lastThreeWinners[lastThreeWinners.length - 1];\n        lastThreeWinners.pop();\n    }\n\n}\n",
  "sourcePath": "C:\\Users\\Lenovo IP3\\Desktop\\casino-smart-contract\\contracts\\Casino.sol",
  "compiler": {
    "name": "solc",
    "version": "0.8.13+commit.abaa5c0e.Emscripten.clang"
  },
  "schemaVersion": "3.4.7",
  "updatedAt": "2022-06-28T17:09:03.616Z",
  "networkType": "ethereum",
  "devdoc": {
    "kind": "dev",
    "methods": {},
    "version": 1
  },
  "userdoc": {
    "kind": "user",
    "methods": {},
    "version": 1
  }
}